{
    "_format": "hh-sol-artifact-1",
    "contractName": "TokenFaucet",
    "sourceName": "contracts/Faucet.sol",
    "abi": [
        {
            "inputs": [
                {
                    "internalType": "uint256",
                    "name": "_claimAmount",
                    "type": "uint256"
                }
            ],
            "stateMutability": "nonpayable",
            "type": "constructor"
        },
        {
            "inputs": [
                {
                    "internalType": "address",
                    "name": "owner",
                    "type": "address"
                }
            ],
            "name": "OwnableInvalidOwner",
            "type": "error"
        },
        {
            "inputs": [
                {
                    "internalType": "address",
                    "name": "account",
                    "type": "address"
                }
            ],
            "name": "OwnableUnauthorizedAccount",
            "type": "error"
        },
        {
            "anonymous": false,
            "inputs": [
                {
                    "indexed": true,
                    "internalType": "address",
                    "name": "owner",
                    "type": "address"
                },
                {
                    "indexed": false,
                    "internalType": "uint256",
                    "name": "amount",
                    "type": "uint256"
                }
            ],
            "name": "FundsDeposited",
            "type": "event"
        },
        {
            "anonymous": false,
            "inputs": [
                {
                    "indexed": true,
                    "internalType": "address",
                    "name": "owner",
                    "type": "address"
                },
                {
                    "indexed": false,
                    "internalType": "uint256",
                    "name": "amount",
                    "type": "uint256"
                }
            ],
            "name": "FundsWithdrawn",
            "type": "event"
        },
        {
            "anonymous": false,
            "inputs": [
                {
                    "indexed": true,
                    "internalType": "address",
                    "name": "previousOwner",
                    "type": "address"
                },
                {
                    "indexed": true,
                    "internalType": "address",
                    "name": "newOwner",
                    "type": "address"
                }
            ],
            "name": "OwnershipTransferred",
            "type": "event"
        },
        {
            "anonymous": false,
            "inputs": [
                {
                    "indexed": true,
                    "internalType": "address",
                    "name": "user",
                    "type": "address"
                },
                {
                    "indexed": false,
                    "internalType": "uint256",
                    "name": "amount",
                    "type": "uint256"
                }
            ],
            "name": "TokensClaimed",
            "type": "event"
        },
        {
            "inputs": [],
            "name": "claimAmount",
            "outputs": [
                {
                    "internalType": "uint256",
                    "name": "",
                    "type": "uint256"
                }
            ],
            "stateMutability": "view",
            "type": "function"
        },
        {
            "inputs": [],
            "name": "claimTokens",
            "outputs": [],
            "stateMutability": "nonpayable",
            "type": "function"
        },
        {
            "inputs": [],
            "name": "cooldownTime",
            "outputs": [
                {
                    "internalType": "uint256",
                    "name": "",
                    "type": "uint256"
                }
            ],
            "stateMutability": "view",
            "type": "function"
        },
        {
            "inputs": [],
            "name": "depositFunds",
            "outputs": [],
            "stateMutability": "payable",
            "type": "function"
        },
        {
            "inputs": [
                {
                    "internalType": "address",
                    "name": "",
                    "type": "address"
                }
            ],
            "name": "lastClaimTime",
            "outputs": [
                {
                    "internalType": "uint256",
                    "name": "",
                    "type": "uint256"
                }
            ],
            "stateMutability": "view",
            "type": "function"
        },
        {
            "inputs": [],
            "name": "owner",
            "outputs": [
                {
                    "internalType": "address",
                    "name": "",
                    "type": "address"
                }
            ],
            "stateMutability": "view",
            "type": "function"
        },
        {
            "inputs": [],
            "name": "renounceOwnership",
            "outputs": [],
            "stateMutability": "nonpayable",
            "type": "function"
        },
        {
            "inputs": [
                {
                    "internalType": "uint256",
                    "name": "_newAmount",
                    "type": "uint256"
                }
            ],
            "name": "setClaimAmount",
            "outputs": [],
            "stateMutability": "nonpayable",
            "type": "function"
        },
        {
            "inputs": [
                {
                    "internalType": "uint256",
                    "name": "_newCooldown",
                    "type": "uint256"
                }
            ],
            "name": "setCooldownTime",
            "outputs": [],
            "stateMutability": "nonpayable",
            "type": "function"
        },
        {
            "inputs": [
                {
                    "internalType": "address",
                    "name": "newOwner",
                    "type": "address"
                }
            ],
            "name": "transferOwnership",
            "outputs": [],
            "stateMutability": "nonpayable",
            "type": "function"
        },
        {
            "inputs": [],
            "name": "withdrawFunds",
            "outputs": [],
            "stateMutability": "nonpayable",
            "type": "function"
        }
    ],
    "bytecode": "0x6080604052620151806002553480156200001857600080fd5b5060405162000e3438038062000e3483398181016040528101906200003e9190620001d8565b33600073ffffffffffffffffffffffffffffffffffffffff168173ffffffffffffffffffffffffffffffffffffffff1603620000b45760006040517f1e4fbdf7000000000000000000000000000000000000000000000000000000008152600401620000ab91906200024f565b60405180910390fd5b620000c581620000d460201b60201c565b5080600181905550506200026c565b60008060009054906101000a900473ffffffffffffffffffffffffffffffffffffffff169050816000806101000a81548173ffffffffffffffffffffffffffffffffffffffff021916908373ffffffffffffffffffffffffffffffffffffffff1602179055508173ffffffffffffffffffffffffffffffffffffffff168173ffffffffffffffffffffffffffffffffffffffff167f8be0079c531659141344cd1fd0a4f28419497f9722a3daafe3b4186f6b6457e060405160405180910390a35050565b600080fd5b6000819050919050565b620001b2816200019d565b8114620001be57600080fd5b50565b600081519050620001d281620001a7565b92915050565b600060208284031215620001f157620001f062000198565b5b60006200020184828501620001c1565b91505092915050565b600073ffffffffffffffffffffffffffffffffffffffff82169050919050565b600062000237826200020a565b9050919050565b62000249816200022a565b82525050565b60006020820190506200026660008301846200023e565b92915050565b610bb8806200027c6000396000f3fe60806040526004361061009c5760003560e01c80638da5cb5b116100645780638da5cb5b1461013a578063b1c7ef0c14610165578063b319c6b71461018e578063b77cf9c6146101b9578063e2c41dbc146101f6578063f2fde38b146102005761009c565b806324600fc3146100a157806348c54b9d146100b85780636ff73201146100cf578063715018a6146100f8578063830953ab1461010f575b600080fd5b3480156100ad57600080fd5b506100b6610229565b005b3480156100c457600080fd5b506100cd61031f565b005b3480156100db57600080fd5b506100f660048036038101906100f19190610806565b6104d2565b005b34801561010457600080fd5b5061010d6104e4565b005b34801561011b57600080fd5b506101246104f8565b6040516101319190610842565b60405180910390f35b34801561014657600080fd5b5061014f6104fe565b60405161015c919061089e565b60405180910390f35b34801561017157600080fd5b5061018c60048036038101906101879190610806565b610527565b005b34801561019a57600080fd5b506101a3610539565b6040516101b09190610842565b60405180910390f35b3480156101c557600080fd5b506101e060048036038101906101db91906108e5565b61053f565b6040516101ed9190610842565b60405180910390f35b6101fe610557565b005b34801561020c57600080fd5b50610227600480360381019061022291906108e5565b6105f2565b005b610231610678565b600047905060008111610279576040517f08c379a00000000000000000000000000000000000000000000000000000000081526004016102709061096f565b60405180910390fd5b6102816104fe565b73ffffffffffffffffffffffffffffffffffffffff166108fc829081150290604051600060405180830381858888f193505050501580156102c6573d6000803e3d6000fd5b506102cf6104fe565b73ffffffffffffffffffffffffffffffffffffffff167feaff4b37086828766ad3268786972c0cd24259d4c87a80f9d3963a3c3d999b0d826040516103149190610842565b60405180910390a250565b600154471015610364576040517f08c379a000000000000000000000000000000000000000000000000000000000815260040161035b906109db565b60405180910390fd5b600254600360003373ffffffffffffffffffffffffffffffffffffffff1673ffffffffffffffffffffffffffffffffffffffff168152602001908152602001600020546103b19190610a2a565b4210156103f3576040517f08c379a00000000000000000000000000000000000000000000000000000000081526004016103ea90610ad0565b60405180910390fd5b42600360003373ffffffffffffffffffffffffffffffffffffffff1673ffffffffffffffffffffffffffffffffffffffff168152602001908152602001600020819055503373ffffffffffffffffffffffffffffffffffffffff166108fc6001549081150290604051600060405180830381858888f1935050505015801561047f573d6000803e3d6000fd5b503373ffffffffffffffffffffffffffffffffffffffff167f896e034966eaaf1adc54acc0f257056febbd300c9e47182cf761982cf1f5e4306001546040516104c89190610842565b60405180910390a2565b6104da610678565b8060028190555050565b6104ec610678565b6104f660006106ff565b565b60015481565b60008060009054906101000a900473ffffffffffffffffffffffffffffffffffffffff16905090565b61052f610678565b8060018190555050565b60025481565b60036020528060005260406000206000915090505481565b61055f610678565b600034116105a2576040517f08c379a000000000000000000000000000000000000000000000000000000000815260040161059990610b62565b60405180910390fd5b3373ffffffffffffffffffffffffffffffffffffffff167f543ba50a5eec5e6178218e364b1d0f396157b3c8fa278522c2cb7fd99407d474346040516105e89190610842565b60405180910390a2565b6105fa610678565b600073ffffffffffffffffffffffffffffffffffffffff168173ffffffffffffffffffffffffffffffffffffffff160361066c5760006040517f1e4fbdf7000000000000000000000000000000000000000000000000000000008152600401610663919061089e565b60405180910390fd5b610675816106ff565b50565b6106806107c3565b73ffffffffffffffffffffffffffffffffffffffff1661069e6104fe565b73ffffffffffffffffffffffffffffffffffffffff16146106fd576106c16107c3565b6040517f118cdaa70000000000000000000000000000000000000000000000000000000081526004016106f4919061089e565b60405180910390fd5b565b60008060009054906101000a900473ffffffffffffffffffffffffffffffffffffffff169050816000806101000a81548173ffffffffffffffffffffffffffffffffffffffff021916908373ffffffffffffffffffffffffffffffffffffffff1602179055508173ffffffffffffffffffffffffffffffffffffffff168173ffffffffffffffffffffffffffffffffffffffff167f8be0079c531659141344cd1fd0a4f28419497f9722a3daafe3b4186f6b6457e060405160405180910390a35050565b600033905090565b600080fd5b6000819050919050565b6107e3816107d0565b81146107ee57600080fd5b50565b600081359050610800816107da565b92915050565b60006020828403121561081c5761081b6107cb565b5b600061082a848285016107f1565b91505092915050565b61083c816107d0565b82525050565b60006020820190506108576000830184610833565b92915050565b600073ffffffffffffffffffffffffffffffffffffffff82169050919050565b60006108888261085d565b9050919050565b6108988161087d565b82525050565b60006020820190506108b3600083018461088f565b92915050565b6108c28161087d565b81146108cd57600080fd5b50565b6000813590506108df816108b9565b92915050565b6000602082840312156108fb576108fa6107cb565b5b6000610909848285016108d0565b91505092915050565b600082825260208201905092915050565b7f536869626f72206e6f2064657900000000000000000000000000000000000000600082015250565b6000610959600d83610912565b915061096482610923565b602082019050919050565b600060208201905081810360008301526109888161094c565b9050919050565b7f4661756365742069732062726f6b652041534600000000000000000000000000600082015250565b60006109c5601383610912565b91506109d08261098f565b602082019050919050565b600060208201905081810360008301526109f4816109b8565b9050919050565b7f4e487b7100000000000000000000000000000000000000000000000000000000600052601160045260246000fd5b6000610a35826107d0565b9150610a40836107d0565b9250828201905080821115610a5857610a576109fb565b5b92915050565b7f596f75722074696d65206e657665722072656163682c20646f2074686520636160008201527f6c6d732100000000000000000000000000000000000000000000000000000000602082015250565b6000610aba602483610912565b9150610ac582610a5e565b604082019050919050565b60006020820190508181036000830152610ae981610aad565b9050919050565b7f5472792077617465722074686520666c6f6f7220696620796f752077616e207460008201527f656c652074757475000000000000000000000000000000000000000000000000602082015250565b6000610b4c602883610912565b9150610b5782610af0565b604082019050919050565b60006020820190508181036000830152610b7b81610b3f565b905091905056fea2646970667358221220467f9e3c50445a3479d49525f88a480874c5eee46082d43a1ed303a9a64a442664736f6c63430008140033",
    "linkReferences": {},
    "deployedLinkReferences": {}
}